000010ANA LUCIA   IHAAS           A000000007500000000002000
000110VINCENZO    GLUCCHESI       A000000065000000000002000
000120SEAN         O'CONNELL      A000000000500000000004000
000020MICHAEL     LTHOMPSON       B010000002500000000030000
000030SALLY       AKWAN           C010000082500000000006000
000130LUIS ANGEL  MQUINTANA       C010000008000000000000400
000140HEATHER     ANICHOLLS       C010000084200000000007400
000200DAVID        BROWN          D110000007400000000001700
000150BRUCE        ADAMSON        D110000002800000000002200
000160ISA VELITA  RPIANKA         D110000002500000000078000
000170MASATOSHI   JYOSHIMURA      D110000046800000000007400
000180MARILYN     SSCOUTTEN       D110000000050000000000700
000190JAMES       HWALKER         D110000004500000000063600
000210WILLIAM     TJONES          D110000082700000000046200
000220JENNIFER    KLUTZ           D110000008400000000008700
000060IRVING      FSTERN          D110000002500000000058000
002929MARIA       NRAMIREZ        D210000004200000000027400
003186FRANCISCO   AGIL            D210000004200000000007400
003017JOSE        AALVAREZ        D210000084200000000027400
003339MARIA       NPERLADO        D210000088200000000027400
002907JOSE        MMING           D210000038000000000000400
002826FRANCISCO   MRAMIREZ        D210000008000000000190400
003210ANGELES     NALVAREZ        D210000084200000000227400
004885JUAN JOSE   MGIL            D210000038000000000190400
003441ALBERTO     MANDRES         D210000038000000000190400
003894AMPARO      NBERNARDEZ      D210000284200000000227400
004523YOLANDA     ARAMIREZ        D210000284200000000227400
004746FRANCISCO   AANDRES         D210000084200000000227400
005135JUAN JOSE   APERLADO        D210000082500000000306000
002884AMPARO      NGIL            D210000084200000000227400
001261ALBERTO     NCASTEDO        D210000284200000000027400
000560ANGELES     MCASTEDO        D210000038000000000090400
002651ALBERTO     ABOBILLO        D210000082500000000306000
000230JAMES       JJEFFERSON      D210000021800000000077400
000240SALVATORE   MMARINO         D210000087600000000230100
000250DANIEL      SSMITH          D210000191800000000153400
000260SYBIL       VJOHNSON        D210000072500000000138000
000270MARIA       LPEREZ          D210000273800000000219000
001062EVA         ACASTEDO        D210000004200000000227400
002585JUAN JOSE   AGIL            D210000084200000000027400
001154AMPARO      ABOBILLO        D210000002500000000006000
000070EVA         DPULASKI        D210000061700000000089300
001263YOLANDA     ACASTEDO        D210000382500000000306000
002084AMPARO      AGIL            D210000082500000000306000
006471ALBERTO     MMAIQUEZ        D210000238000000000090400
